:020000040800F2
:1000000000040020390200083B0200083B020008FF
:100010003B0200083B0200083B0200083B020008CC
:100020003B0200083B0200083B020008F1220008E6
:100030003B0200083B0200083B0200083B020008AC
:100040003B0200083B0200083B0200083B0200089C
:100050003B0200083B020008D111000841120008D1
:10006000C112000841130008C1130008011B000859
:10007000711B0008F11B0008711C0008F11C00082E
:10008000711D0008F11D00083B02000871180008EE
:1000900021190008D1190008811A0008411400082C
:1000A0003B0200083B0200083B0200083B0200083C
:1000B000711E00083B0200083B0200083B020008DA
:1000C0003B0200083B0200083B0200083B0200081C
:1000D0003B020008611F00083B0200083B020008C9
:1000E000211600083B0200083B0200083B02000802
:1000F0003B0200083B0200083B0200083B020008EC
:100100003B0200083B0200083B0200083B020008DB
:100110003B0200083B0200083B0200083B020008CB
:100120003B0200083B0200083B0200083B020008BB
:100130003B0200083B0200083B0200083B020008AB
:100140003B0200083B0200083B0200083B0200089B
:100150003B0200083B0200083B0200083B0200088B
:1001600072B6274880F30888264880F30988264815
:100170004EF60851CEF200010860022080F3148888
:10018000BFF36F8F00F0DCFF02F012F84FF0553034
:100190001E491B4A91423CBF41F8040BFAE71C4937
:1001A000184A91423CBF41F8040BFAE719491A4A30
:1001B0001A4B9A423EBF51F8040B42F8040BF8E781
:1001C00000201749174A91423CBF41F8040BFAE757
:1001D00000F0CEFF00F0BCFF134C144DAC4203DA2C
:1001E00054F8041B8847F9E702F092F8104C114DBF
:1001F000AC4203DA54F8041B8847F9E700F0B0BFBB
:10020000000400200008002000000008000000207A
:10021000000400201C2B000800080020000800201B
:10022000000800208812002060010008600100081A
:10023000600100086001000892E700F000F8FEE7A6
:100240002DE9F04FC1F80CD0C3689D46BDE8F08F92
:10025000002383F311882846A047002002F008F805
:10026000FEE701F0DDFF00DFFEE7000070B5860766
:1002700047D0541E002A3ED00346CAB201E0013CDA
:1002800039D303F8012B9D07F9D1032C2CD9CDB21A
:1002900005EB05250F2C1A4605EB054534D9A4F1CD
:1002A000100C2CF00F0603F1100EB6444FEA1C1C84
:1002B000156055609560D56010327245F8D10CF12B
:1002C000010214F00C0F03EB021204F00F0C13D018
:1002D000ACF1040323F003030433134442F8045B3A
:1002E0009A42FBD10CF003042CB1C9B21C4403F8B0
:1002F000011B9C42FBD170BD64461346002CF4D117
:10030000F9E703461446C0E7A446E1E7844641EA1C
:10031000000313F0030349D1403A23D30B68036071
:100320004B6843608B688360CB68C3600B69036173
:100330004B6943618B698361CB69C3610B6A03625B
:100340004B6A43628B6A8362CB6AC3620B6B036343
:100350004B6B43638B6B8363CB6BC3634030403128
:10036000403ADBD230320BD30B6803604B684360FA
:100370008B688360CB68C36010301031103AF3D2C1
:100380000C3205D351F8043B40F8043B043AF9D24F
:10039000043208D0D2071CBF11F8013B00F8013B22
:1003A00001D30B8803806046704700BF082A13D32F
:1003B0008B07B1D010F00303AED0C3F10403D21AFF
:1003C000DB071CBF11F8013B00F8013BA4D331F857
:1003D000023B20F8023B9FE7043AD9D3013A11F8D7
:1003E000013B00F8013BF9D20B7803704B78437066
:1003F0008B788370604670470000000000000000AA
:100400000020704700000000000000000000000015
:10041000202383F311880D4B5B6813F4006302D132
:1004200083F311887047EFF309834FF08072203B0C
:10043000DA6183F30988064A1168926989689268CB
:1004400091428CBF034A044A9A61704700ED00E074
:10045000101200206302000866020008000000007D
:10046000024AD36843F0C003D360704700380140AC
:10047000FEE700BF000000000000000000000000D8
:10048000294930B4CB6998420FD0D0E90032002519
:100490004FF0FF341360D0F808C05A609A68C56006
:1004A00062449A604C6230BC70470B46002402687C
:1004B00043F81C2F9A425360C46031D04FF0804CF7
:1004C00093688468088D23449360DCF8241089B213
:1004D0000A1A92B29342E6D94FF6FF709A1A8242F4
:1004E00028BF0246022A38BF02228B189BB2CCF8E2
:1004F0003430DCF824309BB2591A89B28A42D2D8FF
:1005000002211A4601310B449BB2CCF83430DCF89E
:1005100024309BB29A1A92B28A42F2D230BC70470F
:100520004FF08043DC60BEE71012002000000000A6
:10053000202383F3118890F82030072B0DD8DFE8B3
:1005400003F0270C0C2308040C08426A936801335B
:100550009360D0E9003213605A6010B400224FF06B
:10056000FF3481680C4B446280F820201B689A6835
:100570008A42FBD25A680021C0E9003210605860FC
:1005800081F3118810BC70470022436A1A60E4E7C7
:10059000002383F311887047101200200000000030
:1005A000014B5B6883607047001000E000000000B2
:1005B0000E4B0F4A5B68526F81689B1A5B1A10B42E
:1005C000D0E90342D21841690261426841F1000159
:1005D0009342026804F1010488BF43609342C0E97A
:1005E0000234416110BC38BF03607047001000E066
:1005F00010120020000000000000000000000000B9
:10060000036898423CD0F0B400260DE0D3E90142E3
:10061000676B94F820503A430A2D626316D00B2D75
:100620002AD01B68984225D0DA680A43DA6000298C
:10063000ECD01A691142E9D11B6898421AD0DA68E5
:100640000A43DA601A691142E0D1F5E7656A2A4285
:10065000E7D0A5680B4A666284F820601268976844
:10066000AF42FBD21B6855689842C4E900252C6054
:100670005460D9D1F0BC7047656A9543D1D1E8E7A1
:10068000704700BF101200200000000000000000B2
:10069000202310B483F311880B4B49425C68201A65
:1006A00008401968821A8A4207D3944205D35A60D7
:1006B000002383F3118810BC70470020002383F3CC
:1006C000118810BC704700BF2010002000000000FF
:1006D000064B49425A68101A08401968884203D3E9
:1006E000824201D3586070470020704720100020DC
:1006F00030B54FF0804C404DDCF824202B461FFADB
:1007000082FE53F81C2F9A4243D02B8D9468AEEB97
:1007100003039BB2CB1828BF0B469C4212D804D2CD
:1007200012681B1B94689C42FAD351688360C0E92D
:100730000021086091685060C91A4FF0FF33916042
:100740006B6230BD4FF6FF748C4228BF0C46022C02
:1007500038BF02240EEB040189B2CCF83410DCF867
:10076000241089B2A1EB0E0E1FFA8EFE7445DCD860
:100770004FF0020E0C460EF1010E714489B2CCF816
:100780003410DCF8241089B20C1BA4B27445F1D2E9
:10079000CBE74FF6FF739942A5F828E08160C0E9E6
:1007A000002228BF19460222914238BF1146C5E9EE
:1007B000070000200EEB01039BB2CCF83430CCF8DC
:1007C0001000CCF80C20DCF824309BB2A3EB0E0018
:1007D00080B28142B5D801320EEB02019E4689B249
:1007E000CCF83410DCF824309BB2A3EB0E0189B2B4
:1007F0009142F0D230BD00BF101200200000000076
:100800003A4B30B4DC693A4D44F00074DC61394C49
:10081000DB69636A9446D3F800422C4044F001043B
:10082000C3F80042D3F800222A4042EA002242F0F4
:100830000102C3F8002200293DD000210A460846E3
:10084000C3F81C12C3F80412C3F80C12C3F8141234
:1008500003EBC20101320E2AC1F84002C1F8440282
:10086000F6D101219CF80200BCF80020C50701FA6E
:1008700002F104D5D3F804420C43C3F804428407C0
:1008800004D5D3F80C420C43C3F80C42400704D5FE
:10089000D3F814020843C3F8140203EBC202DCE9E4
:1008A0000140C2F84042C2F84402D3F81C2211436E
:1008B000C3F81C120CE00122C3F84012C3F8441222
:1008C000C3F80412C3F81412C3F80C22C3F81C2294
:1008D000D3F80012054A21F00101C3F80012D369D0
:1008E00030BC23F00073D361D3697047001002401D
:1008F0000000FFFFE41000200000000000000000E6
:1009000070B5194C4B1C0546A66986B01BD0174B19
:1009100001A8CDE90436FFF7EBFE0122206886F836
:100920002050036831465C6080F820202360A0617D
:10093000FFF786FC049B13B101A8FFF7A1FDA36993
:10094000586A06B070BD0122206886F820500368FE
:1009500031465C6080F820202360A061FFF770FCC6
:10096000A369586A06B070BD101200203105000856
:100970002DE9F04F85B04FF020091646D0F81C80C5
:10098000019389F31188002A32D0464604469246E4
:100990004FF0000B88460392A268A169524528BF18
:1009A0005546276938BFA5687F1AAF424AD826D274
:1009B0003A464046FFF7AAFCEA1BE16808EB07004D
:1009C0000292FFF7A3FC029AE1681144A268A161B8
:1009D000521BA2600EB12046B0478BF31188AAEBE0
:1009E000050AA84489F31188BAF1000FD4D1039EF7
:1009F0003046002383F3118805B0BDE8F08F2A4606
:100A00004046FFF783FCE168A268A161521BA26027
:100A1000002DDFD1019B63B10E4B60689A6901998B
:100A2000C2E90040026004206260FFF769FF00280D
:100A3000B2D0039E0023A6EB0A0083F3118805B011
:100A4000BDE8F08F2A464046FFF760FCA1692944C3
:100A5000DAE700BF101200200000000000000000D4
:100A60004FF0FF330C30FFF783BF00BF00000000E2
:100A70000C30FFF77DBF00BF000000000000000049
:100A800070B52023044683F3118883688BB90D4623
:100A900029B3164EB36962682946C3E900420420AF
:100AA00013606360FFF72CFF00281ADBA368002B9C
:100AB000F0D0A368A169013BA36023694A1C9A4254
:100AC00028BFE368A2610D7828BFA361E3690BB179
:100AD00020469847002383F31188284670BD4FF0C5
:100AE000FF30002383F3118870BD00BF1012002077
:100AF0004FF0FF310C30FFF7C3BF00BF0000000014
:100B00000C30FFF7BDBF00BF000000000000000078
:100B1000F8B5202304460F4683F3118883688BB908
:100B2000154622B3154E6068B3692946C3E90040F3
:100B3000036004206360FFF7E3FE002819DBA3686D
:100B4000002BF0D06269A368511C013B6161A36076
:100B50001770D4E904329A4224BFE3686361E36901
:100B60000BB120469847002080F31188F8BD4FF064
:100B7000FF30002383F31188F8BD00BF101200205E
:100B80004FF0FF323030FFF7C3BF00BF000000005E
:100B90003030FFF7BDBF00BF0000000000000000C4
:100BA0002DE9F04F85B04FF020091646D0F81C8093
:100BB000019389F311888AB34646044692464FF062
:100BC000000B88460392A268D4E9047052452CBFFA
:100BD0005546A5683F1AAF424AD826D23A46414602
:100BE000FFF794FBEA1B08EB0701E0680292FFF7AE
:100BF0008DFB029AE1681144A2686161521BA260F8
:100C00000EB12046B0478BF31188AAEB050AA84421
:100C100089F31188BAF1000FD5D1039E3046002325
:100C200083F3118805B0BDE8F08F41462A46FFF7EF
:100C30006DFBE168A2686161521BA260002DDFD1EB
:100C4000019B63B10E4B60689A690199C2E900404B
:100C5000026004206260FFF753FE0028B3D0039EB9
:100C60000023A6EB0A0083F3118805B0BDE8F08FDE
:100C700041462A46FFF74AFB61692944DAE700BF8B
:100C80001012002000000000000000000000000022
:100C90004FF0FF333030FFF783BF00BF000000008C
:100CA0003030FFF77DBF00BF0000000000000000F3
:100CB00070B40026134A856891698C684662A54223
:100CC00012D9134681F820601B689D68AC42FBD3A3
:100CD0005C68C1E9003421600124596080F820403B
:100CE00070BC9061FFF7ACBA134680F820601B68B7
:100CF0009A689542FBD970BC5A68C0E9003210600E
:100D00005860704710120020000000000000000032
:100D100038B52024034684F311881A4DC3F808110E
:100D2000C3F83C11C3F818510121022503F1DC047A
:100D3000C3F80C410024C3F8DC20134AA3F8205167
:100D400083F82211114D516900F58070C3F8141118
:100D5000C3F8FC50C3E94D44C3F81C31C3F810215B
:100D6000C3F8E04003F59475086103F59671C3E993
:100D70004A51C3F830115061FFF79AFF84F311888C
:100D800038BD00BF78290008101200205102000869
:100D90002DE98048DFF868B15A4ADBF818305A4D1F
:100DA00089B04FF02008042601244FF00009574F66
:100DB0009A61A5F1100A61E0DAF82420D168890768
:100DC00002D1116988075FD0D1688B077AD0D2F839
:100DD000B001D2F8B411D2F8B8313B61D2F8BC31CD
:100DE0007B61C2F80C80D3689B0703D1536943F041
:100DF0000203536197F804C0C0F34002C0F3800EB1
:100E000012012CF0300C42EA4E1242EA0C02930618
:100E10003A716ED5BA68C00860F31C02BA603A79BC
:100E2000080A61F30302090C3A713870798089F37A
:100E3000118888F31188364BDBF81820142103A899
:100E4000079201920693FFF753FC0821019ADBF801
:100E5000000082F8201011460268C2F804B080F841
:100E60002040CBF80020CBF81800FFF7E9F9069AEC
:100E700012B103A8FFF704FB89F3118888F31188E6
:100E80009AF80020052A97D1DBF81810DAF8142018
:100E9000DBF80000C1E90052116081F820600268AF
:100EA000CAF81410C2F804B080F82040CBF8002033
:100EB000CBF81800FFF7C4F9DBF81820526A002AB3
:100EC000DED0D9E711698907B1D0D2F8C001D2F8D4
:100ED000C411D2F8C8313B61D2F8CC317B61C2F881
:100EE000108013699B0785D1536943F01003536148
:100EF00080E73A89400D60F30A023A818FE700BF2C
:100F00001012002080290008F4100020D8080020CA
:100F10003105000800000000000000000000000093
:100F20004FF0200A01262DE98048374D374AAB693A
:100F3000DFF8DC90374F87B0A9F1080B9A618AF38C
:100F400011884FF004089BF80030052B05D0DBF822
:100F500024309A6812F0E05F44D1AC69DBF80C30C1
:100F6000C821C4E9009301A81C60CDE90474CBF842
:100F70000C40FFF7BDFB286884F8208003682146F9
:100F80005D6080F820602B60A861FFF759F9049B31
:100F900013B101A8FFF774FAAB695B6A002BD2D0DA
:100FA000002383F311888AF31188AC69142101A806
:100FB000CDE90474FFF79CFB0823286884F82030EF
:100FC000036821465D6080F820602B60A861FFF710
:100FD00037F9049B13B101A8FFF752FA002383F3FA
:100FE0001188ACE700229968C1F3016103EB01139A
:100FF000C3F88421C3F88821C3F88C21C3F8806129
:1010000082F31188CFE700BF10120020902900085A
:10101000EC10002031050008000000000000000076
:1010200080B54FF020080827124C134AA369134ECD
:1010300086B09A6188F31188A569142101A8CDE9C9
:101040000465FFF755FB0122206885F820700368CE
:1010500029465C6080F820202360A061FFF7F0F84B
:10106000049B13B101A8FFF70BFA002383F3118847
:10107000E0E700BF10120020A02900083105000899
:1010800080B54FF020080827124C134AA369134E6D
:1010900086B09A6188F31188A569142101A8CDE969
:1010A0000465FFF725FB0122206885F8207003689E
:1010B00029465C6080F820202360A061FFF7C0F81B
:1010C000049B13B101A8FFF7DBF9002383F3118818
:1010D000E0E700BF10120020AC290008310500082D
:1010E00080B54FF020080827124C134AA369134E0D
:1010F00086B09A6188F31188A569142101A8CDE909
:101100000465FFF7F5FA0122206885F8207003686E
:1011100029465C6080F820202360A061FFF790F8EA
:10112000049B13B101A8FFF7ABF9002383F31188E7
:10113000E0E700BF10120020B829000831050008C0
:10114000704700BF00000000000000000000000029
:10115000704700BF00000000000000000000000019
:10116000FEE700BF000000000000000000000000DB
:1011700070B5134D05F1800455E90301884255F817
:10118000102C0DD20346043A52F8046F43F8046B56
:101190008B42F9D34B1E1B1A23F00303043318446C
:1011A00055F8042C824207D9013A121A22F00302A0
:1011B00000210432FFF75AF81035A542DCD170BD8A
:1011C000A42A000800000000000000000000000049
:1011D000184A516913680B4003F0010353613BB394
:1011E00070B5154DAB680BB1E8689847202383F3C1
:1011F00011882C68AC4214D00026204624680F4B7E
:10120000816865602C60466280F820601B689A687F
:101210008A42FBD25A68AC42C0E900321060586082
:10122000EBD1002383F31188BDE87040FFF7F0B8DD
:10123000FFF7EEB8000401400C110020101200204E
:10124000184AF8B5516913680B4003F00203536163
:101250001BB3154FBB690BB1F8699847202383F383
:101260001188124D3C69AC4214D0002620462468F7
:101270000F4B81683C616560466280F820601B68A6
:101280009A688A42FBD25A68AC42C0E900321060C8
:101290005860EBD1002383F31188BDE8F840FFF7D5
:1012A000B7B800BF000401400C1100201C11002041
:1012B00010120020000000000000000000000000EC
:1012C000184AF8B5516913680B4003F004035361E1
:1012D0001BB3154FBB6A0BB1F86A9847202383F301
:1012E0001188124D3C6AAC4214D000262046246876
:1012F0000F4B81683C626560466280F820601B6825
:101300009A688A42FBD25A68AC42C0E90032106047
:101310005860EBD1002383F31188BDE8F840FFF754
:1013200077B800BF000401400C1100202C110020F0
:10133000101200200000000000000000000000006B
:10134000184AF8B5516913680B4003F0080353615C
:101350001BB3154FBB6B0BB1F86B9847202383F37E
:101360001188124D3C6BAC4214D0002620462468F4
:101370000F4B81683C636560466280F820601B68A3
:101380009A688A42FBD25A68AC42C0E900321060C7
:101390005860EBD1002383F31188BDE8F840FFF7D4
:1013A00037B800BF000401400C1100203C110020A0
:1013B00010120020000000000000000000000000EB
:1013C000184AF8B5516913680B4003F010035361D4
:1013D0001BB3154FBB6C0BB1F86C9847202383F3FC
:1013E0001188124D3C6CAC4214D000262046246873
:1013F0000F4B81683C646560466280F820601B6822
:101400009A688A42FBD25A68AC42C0E90032106046
:101410005860EBD1002383F31188BDE8F840FEF754
:10142000F7BF00BF000401400C1100204C11002048
:10143000101200200000000000000000000000006A
:10144000F8B56C4B5A691D68154005F47872AC0606
:101450005A6125D5684CA36D0BB1E06D98472023E8
:1014600083F31188654F266DBE4216D04FF0000CF5
:1014700030463668624B816826657760C0F824C0C4
:1014800080F820C01B689A688A42FBD25A68BE4224
:10149000C0E9003210605860EAD1002383F311885C
:1014A000680625D5544CA36E0BB1E06E98472023F7
:1014B00083F31188534F266EBE4216D04FF0000CB6
:1014C000304636684E4B816826667760C0F824C087
:1014D00080F820C01B689A688A42FBD25A68BE42D4
:1014E000C0E9003210605860EAD1002383F311880C
:1014F000290625D5404CA36F0BB1E06F98472023F8
:1015000083F31188404F266FBE4216D04FF0000C77
:10151000304636683A4B816826677760C0F824C049
:1015200080F820C01B689A688A42FBD25A68BE4283
:10153000C0E9003210605860EAD1002383F31188BB
:10154000EA0529D52C4CD4F8883013B1D4F88C0096
:101550009847202383F311882C4FD4F88060BE4233
:1015600017D04FF0000C30463668254B8168C4F820
:1015700080607760C0F824C080F820C01B689A683B
:101580008A42FBD25A68BE42C0E9003210605860FD
:10159000E9D1002383F31188AB0527D5164CD4F885
:1015A000983013B1D4F89C009847202383F3118816
:1015B000174ED4F89050B54215D0002728462D6814
:1015C0000F4B8168C4F890506E60476280F82070BD
:1015D0001B689A688A42FBD25A68B542C0E9003259
:1015E00010605860EAD1002383F31188BDE8F84009
:1015F000FEF70EBF000401400C1100205C1100201A
:10160000101200206C1100207C1100208C11002091
:101610009C110020000000000000000000000000FD
:10162000F8B5884B5A691D68154005F47C426E0573
:101630005A6129D5844CD4F8A83013B1D4F8AC0041
:101640009847202383F31188804FD4F8A060BE42CE
:1016500017D04FF0000C304636687D4B8168C4F8D7
:10166000A0607760C0F824C080F820C01B689A682A
:101670008A42FBD25A68BE42C0E90032106058600C
:10168000E9D1002383F311882C0529D56E4CD4F8B9
:10169000B83013B1D4F8BC009847202383F31188E5
:1016A0006C4FD4F8B060BE4217D04FF0000C3046FB
:1016B0003668674B8168C4F8B0607760C0F824C0B2
:1016C00080F820C01B689A688A42FBD25A68BE42E2
:1016D000C0E9003210605860E9D1002383F311881B
:1016E000E80429D5584CD4F8C83013B1D4F8CC004C
:1016F0009847202383F31188574FD4F8C060BE4227
:1017000017D04FF0000C30463668514B8168C4F852
:10171000C0607760C0F824C080F820C01B689A6859
:101720008A42FBD25A68BE42C0E90032106058605B
:10173000E9D1002383F31188A90429D5424CD4F8B8
:10174000D83013B1D4F8DC009847202383F31188F4
:10175000424FD4F8D060BE4217D04FF0000C304654
:1017600036683B4B8168C4F8D0607760C0F824C00D
:1017700080F820C01B689A688A42FBD25A68BE4231
:10178000C0E9003210605860E9D1002383F311886A
:101790006A0429D52C4CD4F8E83013B1D4F8EC0005
:1017A0009847202383F311882D4FD4F8E060BE4280
:1017B00017D04FF0000C30463668254B8168C4F8CE
:1017C000E0607760C0F824C080F820C01B689A6889
:1017D0008A42FBD25A68BE42C0E9003210605860AB
:1017E000E9D1002383F311882B0427D5164CD4F8B4
:1017F000F83013B1D4F8FC009847202383F3118804
:10180000184ED4F8F050B54215D0002728462D6860
:101810000F4B8168C4F8F0506E60476280F820700A
:101820001B689A688A42FBD25A68B542C0E9003206
:1018300010605860EAD1002383F31188BDE8F840B6
:10184000FEF7E6BD000401400C110020AC110020A1
:1018500010120020BC110020CC110020DC1100204F
:10186000EC110020FC11002000000000000000002E
:10187000DFF890C0F8B5DCF82420936813F001017C
:10188000936004D013F00C0F18BF4FF48031D805CB
:1018900006D513F4406F14BF41F4003141F002014A
:1018A000DA0306D513F4402F14BF41F4802141F030
:1018B0000401202383F31188134EDCF80850B5424D
:1018C00015D000272C462D68104BA068CCF8085086
:1018D0006E60676284F820701B689A688242FBD24F
:1018E0005A68B542C4E9003214605C60EAD1084825
:1018F000FEF786FE002383F31188BDE8F840FEF76B
:1019000087BD00BFE4100020EC1000201012002062
:101910000011002000000000000000000000000096
:101920002DE9F041244F7B6AD3F80C8018F0030FA7
:1019300006D118F0100F2ED1BDE8F041FEF768BDBA
:101940005A69202122F002025A6181F311883D4632
:1019500055F8104FAC4214D0002620462468174B8F
:1019600081683C616560466280F820601B689A6807
:101970008A42FBD25A68AC42C0E90032106058601B
:10198000EBD101210E48FEF73BFE002383F31188C3
:1019900018F0100FD0D010217A6A2023D16083F381
:1019A00011880848FEF72CFE002383F31188BDE858
:1019B000F041FEF72DBD00BFE41000201012002002
:1019C000FC100020041100200000000000000000B6
:1019D0002DE9F041244F7B6AD3F8108018F0030FF3
:1019E00006D118F0100F2ED1BDE8F041FEF710BD62
:1019F0005A69202122F010025A6181F311883D4674
:101A000055F8104FAC4214D0002620462468174BDE
:101A100081683C616560466280F820601B689A6856
:101A20008A42FBD25A68AC42C0E90032106058606A
:101A3000EBD102210E48FEF7E3FD002383F311886A
:101A400018F0100FD0D010217A6A2023116183F38F
:101A500011880848FEF7D4FD002383F31188BDE800
:101A6000F041FEF7D5BC00BFE410002010120020AA
:101A7000FC10002004110020000000000000000005
:101A8000184808B5436A5A685A6052070AD4202396
:101A900083F31188144B5B6813F400630ED183F356
:101AA000118808BD9969202383F31188184409041B
:101AB000FEF7A6FD002383F31188E8E7EFF309831F
:101AC0004FF08072203BDA6183F30988074A11687E
:101AD00092698968926891428CBF054A054A9A6169
:101AE00008BD00BFE410002000ED00E0101200204F
:101AF0006302000866020008000000000000000009
:101B000008B5154B19689A6801F00E01114205D00D
:101B1000124A596093680BB1D0689847202383F329
:101B200011880F4B5B6813F4006302D183F31188B3
:101B300008BDEFF309834FF08072203BDA6183F335
:101B40000988084A116892698968926891428CBF35
:101B5000054A064A9A6108BD00000240A410002010
:101B600000ED00E010120020630200086602000889
:101B7000164B10B51968DA69090901F00E01114216
:101B800006D013480A0104695A600CB14069A047A5
:101B9000202383F311880F4B5B6813F4006302D199
:101BA00083F3118810BDEFF309834FF08072203B5F
:101BB000DA6183F30988084A116892698968926832
:101BC00091428CBF054A064A9A6110BD000002404E
:101BD000A410002000ED00E01012002063020008B5
:101BE0006602000800000000000000000000000085
:101BF000164B10B519681A6B090A01F00E01114253
:101C000006D013480A0284695A600CB1C069A04723
:101C1000202383F311880F4B5B6813F4006302D118
:101C200083F3118810BDEFF309834FF08072203BDE
:101C3000DA6183F30988084A1168926989689268B1
:101C400091428CBF054A064A9A6110BD00000240CD
:101C5000A410002000ED00E0101200206302000834
:101C60006602000800000000000000000000000004
:101C7000164B10B519685A6C090B01F00E01114290
:101C800006D013480A03046A5A600CB1406AA047A0
:101C9000202383F311880F4B5B6813F4006302D198
:101CA00083F3118810BDEFF309834FF08072203B5E
:101CB000DA6183F30988084A116892698968926831
:101CC00091428CBF054A064A9A6110BD000002404D
:101CD000A410002000ED00E01012002063020008B4
:101CE0006602000800000000000000000000000084
:101CF000164B10B519689A6D090C01F00E011142CE
:101D000006D013480A04846A5A600CB1C06AA0471E
:101D1000202383F311880F4B5B6813F4006302D117
:101D200083F3118810BDEFF309834FF08072203BDD
:101D3000DA6183F30988084A1168926989689268B0
:101D400091428CBF054A064A9A6110BD00000240CC
:101D5000A410002000ED00E0101200206302000833
:101D60006602000800000000000000000000000003
:101D7000164B10B51968DA6E090D01F00E0111420B
:101D800006D013480A05046B5A600CB1406BA0479B
:101D9000202383F311880F4B5B6813F4006302D197
:101DA00083F3118810BDEFF309834FF08072203B5D
:101DB000DA6183F30988084A116892698968926830
:101DC00091428CBF054A064A9A6110BD000002404C
:101DD000A410002000ED00E01012002063020008B3
:101DE0006602000800000000000000000000000083
:101DF000174B10B51968D3F88020090E01F00E01B9
:101E0000114206D013480A06846B5A600CB1C06BAD
:101E1000A047202383F311880F4B5B6813F4006302
:101E200002D183F3118810BDEFF309834FF0807264
:101E3000203BDA6183F30988084A1168926989684E
:101E4000926891428CBF064A064A9A6110BD00BF53
:101E500000000240A410002000ED00E0101200205D
:101E60006302000866020008000000000000000095
:101E70002DE9F0414FF080473B69FA681340DAB230
:101E8000D2439B073A6103D4BDE8F041FEF7C0BAE4
:101E9000202585F311882F4C786AE369B4F828C0AF
:101EA00080B29A68A0EB0C0189B291424ED34FF0F8
:101EB000000804F11C066244D3E900102285016089
:101EC000D4F81CC0DA68B4454860C3F80C8008BF79
:101ED000C7F80C8088F311881869904785F311883A
:101EE000786AE369B4F828C080B29A68A0EB0C0164
:101EF00089B29142DFD2B34221D0521A4FF6FF711C
:101F00008A4220859A6028BF0A46022A38BF0222E8
:101F10004FF0804483189BB26363636A9BB2181AC4
:101F200080B282420BD802211A4601310B449BB287
:101F30006363636A9BB29A1A92B28A42F4D2002314
:101F400083F31188BDE8F041FEF762BA04F11C0684
:101F5000D1E700BF101200200000000000000000C8
:101F60002DE9F04F8B4C83B0D4F874A0DAF80C90C4
:101F7000DAF80030D9059DB200F19D80202383F36B
:101F8000118815F02F0F5ED0834F4FF0000807F136
:101F900008060BE0A906DAF8043094F878B020D4EB
:101FA000DAF8003013F02F0F9DB24CD02A07F1D091
:101FB00045F30001C5F3C00301F0200141EAC3115C
:101FC000AB0748BF41F04001680748BF41F480714A
:101FD0003846FEF715FBA906DAF8043094F878B015
:101FE000DED56269002A48D0D4E908218A424ED061
:101FF00061690BEA030B0131531C2362616182F8B2
:1020000000B0D4E907329A4228BFA369E16828BF2B
:102010002362B142C4D00B688868E3605E605F4BA6
:10202000C1F8248081F820801B689A688242FBD224
:102030005A680B604A6011605960DAF8003013F09A
:102040002F0F9DB2B2D1002383F3118819F0800FB6
:1020500001D02A0654D419F0400F01D06B061FD4CA
:10206000202383F311884E4B5B6813F4006332D155
:1020700083F3118803B0BDE8F08F04214648019333
:10208000FEF7BEFAD4E908218A42019BB0D161690A
:102090000029ADD04FF480613F48FEF7B1FA7FE7E9
:1020A000202383F31188D4E911239A4256D00023C8
:1020B00083F31188D4E7202383F311884FF4007150
:1020C000201DFEF79DFA6FF480720023CAF80020ED
:1020D00083F3118852E7EFF309834FF08072203BBE
:1020E000DA6183F309882D4A1168926989689268D8
:1020F00091428CBF2B4A2C4A9A6103B0BDE8F08F05
:10210000202383F31188D4E911239A4234D0A26B9F
:102110000132A2635A1CA2641E78236C9A4201D336
:10212000E36BA364216B214B994211D00022086814
:10213000206343608868194B4A6281F820201B683D
:102140009A688242FBD25A680B604A6011605960FB
:10215000CAF80460002383F311887CE7A36B002B8B
:10216000A5D010210C48FEF74BFA4FF6BF7309EAD1
:102170000303CAF80C309AE7A26B002AC7D00821E3
:102180000548FEF73DFA4FF67F7309EA0303CAF8E4
:102190000C30DFE7281000202C1000201012002047
:1021A00000ED00E0630200086602000858100020FD
:1021B000174A136843F00103136013689907FCD5AD
:1021C00000201368124903F0F903136050604B6854
:1021D00013F00C0FFBD14B680D4A43F420134B60F6
:1021E0000B6843F080730B6013689B01FCD51120D2
:1021F0000849094B516018605368054943F00203D0
:1022000053604B6803F00C03082BFAD1704700BFF2
:10221000001002400064680000200240000000003E
:1022200010B44FF0010C00240D4A10689169036846
:102230005A6080F820C081F8204013608C6890615B
:102240009A68A24203D91B689A68A242FBD85A68CE
:1022500010BCC1E9003211605960FDF7F1BF00BF49
:10226000101200200000000000000000000000002C
:10227000202370B583F311881A4EB1698D6A01F17C
:10228000280C6545486213D04FF0000E2C462D688F
:10229000144BA0688D6284F820E01B689A68824223
:1022A000FBD25A686545C4E9003214605C60EDD128
:1022B00091F822303BB991F821309B0703D1D1E945
:1022C000043213615A610F230122306881F82030F3
:1022D00003685E6080F820203360B061BDE8704024
:1022E000FDF7AEBF1012002000000000000000004B
:1022F000EFF30983203383F30988002383F31188E4
:10230000704700BF00000000000000000000000057
:1023100000214FF0FF332DE98048C04AC04D1069BD
:1023200087B069601361166911611669D668D36058
:10233000D368D160D368D669BA4F46F08056D6616B
:10234000D669D6690B4646F00066D661D2693A680E
:10235000B54C42F480723A600A4605F108002960E3
:1023600054F823100A6040F8132004331C2BF7D1D3
:102370004FF0FF32AD4B60205A604FF480744FF441
:1023800000034FF0400C80274FF400764FF4806537
:102390000022A74981F80603C1F880C1C1F800C036
:1023A00081F80703C1F880710F6081F80803C1F854
:1023B00080410C6081F80903C1F880610E6081F8EA
:1023C0000A03C1F880510D6081F81703C1F880310C
:1023D0000B60984B81F82803C1F884414C601919AF
:1023E000C3E90033C3E9022210339942F8D14FF018
:1023F00088314FF0FF3442F28A564FF0010C4FF013
:10240000090E86488C4D83698C4F43F07D038361B0
:102410008369DFF82C828B4BC3E90B26C3E90322C7
:10242000C3E901225A611A62874EEC606960296033
:10243000C5F80C44C5F80414C5F80014FC60C7F8CE
:1024400004803960814F05F58065F4607160376004
:10245000C5F80C4CC5F8041CC5F8001C83F800C076
:10246000816903F1180441F4007181617849C3E97D
:102470000644996283694A60C1F808C0C1F808E05F
:102480008B681C07FCD40522714B8A609A6812F095
:102490000402FBD1614C9A60A3696E4F23F4007370
:1024A000A361A3694FF0010AB0234FF400264FF453
:1024B00080104FF4001115467A604FF48002DFF867
:1024C000709187F800A089F81333C9F88061C9F8C2
:1024D000006089F81433C9F88001C9F8000089F850
:1024E0001533C9F88011C9F8001089F816335A4B12
:1024F000C9F88021C9F800207B6207F10803C7E909
:10250000023307F11003C7E9043307F11803BB6175
:1025100007F11C032A4629460E20FB6107F1200320
:102520003B62FEF76DF910234C4E41F20A0B304628
:102530007561B3634A4B4FF0FF3CC3F828B0DFF836
:1025400024B1C3E9015540F804BB70604648C3E9B3
:102550000855F064454883F800A07067A0F5803006
:10256000D86106F16400C6E91100F061F06306F17C
:102570005400C6E90800B06106F10C00C6E903008A
:1025800006F13000C6E90C0003F10C00C3E90300BA
:1025900006F17400306441F218005D61F662366540
:1025A00086F808A0B562D862E369314843EA0A03B5
:1025B000E361E3692F4C4FF08042C4E90145C4F860
:1025C00024C04368258543F40063436045F6BF5348
:1025D00093624FF6FF734FF0805ED3626FF07F031C
:1025E000956125485563D5605560C2F814A0C2F8BE
:1025F00000A089F81C33C9F880E1C9F800E0DFF8D1
:102600007CE01F4AC0F800E0DFF878E0C2E901553D
:10261000C0F804E01C485561106037E0001002402B
:10262000A410002000700040282A0008000002408A
:1026300000E100E00C110020000801400010014002
:1026400088883888F0080020001401404488888871
:1026500000240140E4100020006400402810002005
:1026600024090020D0290008610400080038014036
:10267000002004E01012002020100020881200200A
:1026800054090020005000209106000804F11C00AD
:10269000C4E9070002F10C00C2E9030014229B4BBD
:1026A00024601B605B609A611C2204211A63984AB3
:1026B0009D601A629A6303F110021A6103F1240209
:1026C0005A6203F128029A6203F13C02DA6303F1D1
:1026D00040021A6403F144025A645D610022D96128
:1026E0005963DD6200238846CDE90423CDF800C09C
:1026F0006567019503956846FDF752FFFDF758FFA2
:10270000B8F10108F7D1802101220098814B606760
:102710008148C4E90433A361A163E16603F12C019C
:1027200028332025C4E91988C4E91044C4E91631C6
:10273000C4F84C80A06484F85220A4F8502021668C
:1027400085F3118862B64FF6FF0E4FF0100C734BF5
:102750007349D86800EA0E000143D960D3F8FC1031
:10276000704841F08071C3F8FC10016811430160AA
:1027700083F81FC083F8225088F3118862B685F36E
:1027800011880221684BA3F8B0106849C3F898205B
:10279000D9666749C3F8CC20C3F88C10654983F823
:1027A000B2206269C3F8A81003F1900003F16C0134
:1027B000C3F8A420C3E93188C3F8AC30C3F87080F3
:1027C000C3F8A040C3F89C10106103F1BC02C3E938
:1027D0002F2203F1B8026061C3F8B820FEF768FA4F
:1027E00088F3118885F31188337A012B0CD1C0202E
:1027F000514A524B916941F480419161926983F849
:102800002503C3F884515D6040F27122736F012586
:102810009A60402242F22C114FF000081A614FF0EA
:102820000209FF225D61D960C3F8008019685B6806
:1028300086F8782086F8089088F311889E21404A0F
:102840004048FEF765FA82213F4A4048FEF760FAA9
:1028500080213F4A3F48FEF75BFA404629463E4A00
:10286000FDF7CEFF202383F31188334A87F80090C9
:10287000D1693A4B41F000717B607B6AD161D269CA
:102880001D605A68D10707D401210820FEF738F8E7
:102890007B6A5A68D207F7D504217A6850681268B3
:1028A000D8611A6039702E490022596182F311886B
:1028B000A0212C4A2C48FEF72BFAA0212B4A2C48A9
:1028C000FEF726FA4FF0200808272A4E88F31188D1
:1028D000A5694FF4FA616846CDE90365FDF708FF85
:1028E0000122206885F82070036829465C6080F822
:1028F00020202360A061FDF7A3FC039B13B1684671
:10290000FDF7BEFD002383F31188DFE77009002087
:10291000D106000840120020F829000800ED00E070
:102920000003FA05001000E0000800207104000810
:1029300051020008C82900080010024000E100E030
:1029400021100008B8090020E1100008000B002049
:1029500081100008480C0020182A0008102A0008DE
:102960005B870100910D0008D80E0020210F0008A0
:08297000900D00203105000864
:102978006E6F6E616D65000063616E5F52585F54E3
:10298800687265616400000063616E5F54585F544B
:1029980068726561640000004164635F5468726531
:1029A800616400004F75745F54687265616400006B
:1029B8004469676974616C5F54687265616400009A
:1029C80069646C650000000000000000910C0008BC
:1029D800610A0008810B0008F10A0008910B000841
:1029E800010B0008A10C0008710A00080104000886
:1029F8006D61696E00164430040244080C10141806
:102A08001C202122000000006400000008001C00B7
:102A180000000200000000E00400E0FF00000240A7
:102A280008000240010000000000000B0000024006
:102A38001C000240020000000004010C00000240DB
:102A480030000240040000000008020D00000240AF
:102A58004400024008000000000C030E0000024081
:102A680058000240100000000010040F000002404F
:102A78006C00024020000000001405100000024015
:102A88008000024040000000001806111C2B0008BE
:102A98008812002088120020881200201C2B0008B1
:102AA8000000000000000000000000001C2B0008CF
:102AB8000000000000000000000000001C2B0008BF
:102AC8000000000000000000000000001C2B0008AF
:102AD8000000000000000000000000001C2B00089F
:102AE8000000000000000000000000001C2B00088F
:102AF8000000000000000000000000001C2B00087F
:0C2B0800000000000000000000000000C1
:082B1400F8D7FF7F010000006B
:0400000508000239B4
:00000001FF
