:020000040800F2
:1000000000040020490200084B0200084B020008CF
:100010004B0200084B0200084B0200084B0200088C
:100020004B0200084B0200084B020008412D00085B
:100030004B0200084B0200084B0200084B0200086C
:100040004B0200084B0200084B0200084B0200085C
:100050004B0200084B02000801140008711400084C
:10006000F114000871150008F1150008311D000891
:10007000A11D0008211E0008A11E0008211F000864
:10008000A11F0008212000084B020008A11A000847
:10009000511B0008011C0008B11C00087116000863
:1000A0004B0200084B0200084B0200084B020008FC
:1000B000A12000084B0200084B0200084B02000878
:1000C0004B0200084B0200084B0200084B020008DC
:1000D0004B020008912100084B0200084B02000867
:1000E000511800084B0200084B0200084B020008A0
:1000F0004B0200084B0200084B0200084B020008AC
:100100004B0200084B0200084B0200084B0200089B
:100110004B0200084B0200084B0200084B0200088B
:100120004B0200084B0200084B0200084B0200087B
:100130004B0200084B0200084B0200084B0200086B
:100140004B0200084B0200084B0200084B0200085B
:100150004B0200084B0200084B0200084B0200084B
:04016000113500084D
:1001700072B6274880F30888264880F30988264805
:100180004EF60851CEF200010860022080F3148878
:10019000BFF36F8F01F0ECF802F022F94FF0553009
:1001A0001E491B4A91423CBF41F8040BFAE71C4927
:1001B000184A91423CBF41F8040BFAE719491A4A20
:1001C0001A4B9A423EBF51F8040B42F8040BF8E771
:1001D00000201749174A91423CBF41F8040BFAE747
:1001E00001F0DEF801F0CCF8134C144DAC4203DA08
:1001F00054F8041B8847F9E702F0B2FD104C114D8A
:10020000AC4203DA54F8041B8847F9E701F0C0B8A0
:10021000000400200008002000000008000000206A
:1002200000040020083700080008002060080020B3
:1002300060080020A014002060010008640100088C
:10024000640100086401000892E700F000F8FEE78E
:100250002DE9F04FC1F80CD0C3689D46BDE8F08F82
:10026000002383F311882846A047002002F028FDD0
:10027000FEE702F0EDF800DFFEE7000070B586074C
:1002800047D0541E002A3ED00346CAB201E0013CCA
:1002900039D303F8012B9D07F9D1032C2CD9CDB20A
:1002A00005EB05250F2C1A4605EB054534D9A4F1BD
:1002B000100C2CF00F0603F1100EB6444FEA1C1C74
:1002C000156055609560D56010327245F8D10CF11B
:1002D000010214F00C0F03EB021204F00F0C13D008
:1002E000ACF1040323F003030433134442F8045B2A
:1002F0009A42FBD10CF003042CB1C9B21C4403F8A0
:10030000011B9C42FBD170BD64461346002CF4D106
:10031000F9E703461446C0E7A446E1E7844641EA0C
:10032000000313F0030349D1403A23D30B68036061
:100330004B6843608B688360CB68C3600B69036163
:100340004B6943618B698361CB69C3610B6A03624B
:100350004B6A43628B6A8362CB6AC3620B6B036333
:100360004B6B43638B6B8363CB6BC3634030403118
:10037000403ADBD230320BD30B6803604B684360EA
:100380008B688360CB68C36010301031103AF3D2B1
:100390000C3205D351F8043B40F8043B043AF9D23F
:1003A000043208D0D2071CBF11F8013B00F8013B12
:1003B00001D30B8803806046704700BF082A13D31F
:1003C0008B07B1D010F00303AED0C3F10403D21AEF
:1003D000DB071CBF11F8013B00F8013BA4D331F847
:1003E000023B20F8023B9FE7043AD9D3013A11F8C7
:1003F000013B00F8013BF9D20B7803704B78437056
:100400008B78837060467047000000000000000099
:100410000020704700000000000000000000000005
:100420002DE9F0410D0704461AD48A070FD5036958
:100430001A785B68002A51D03BB1042202709847B9
:100440002378042B01D103232370BDE8F0814B07EF
:10045000FBD503695B68002BF7D0BDE8F041184776
:100460000E23D0E90A7200215668356825F00F0581
:1004700035600569567BAD681268B3405360B9605A
:100480000DB305230370A8472378052B1BD0202329
:1004900083F31188616989B100224FF0FF35264B43
:1004A000886862614D6281F820201B689A688242E8
:1004B000FBD25A68C1E9003211605960002383F30E
:1004C0001188BDE8F08102220023227023612023DD
:1004D00083F3118861690029DED1EFE70E21C56A37
:1004E000D0F828C0D5E900E73E6826F00F063E6048
:1004F0006D7BA940CEF80410CCF80820BBB10422D3
:10050000027098472378042B11D0202383F311889D
:1005100061690029D2D00022074B886862614A6273
:1005200081F820201B689A688242FBD2C1E7022230
:10053000002322702361E8E7281400200000000057
:10054000202383F311880D4B5B6813F4006302D101
:1005500083F311887047EFF309834FF08072203BDB
:10056000DA6183F30988064A11689269896892689A
:1005700091428CBF034A044A9A61704700ED00E043
:100580002814002073020008760200080000000012
:1005900070B54FF0010E817B164A0EFA01FC85689A
:1005A000D2E9004323EA0C0324EA0C04C2E9004325
:1005B0002B400FD000204B1C02EBC30142F833004C
:1005C0006306486005D10C4B5A6922F001025A615A
:1005D0005B6970BD90F80FC0084D4FEA5C160CF0D7
:1005E0001F0020360EFA00F045F82600654485F815
:1005F0000033DFE7BC1200200010024000E100E001
:100600002DE9F0414FF0010E264D0EFA00F62C6850
:10061000264218BF002001D0BDE8F0818446224F59
:1006200034432C607869214C40EA0E080CEB0E0034
:1006300045F8302005EBC0004360C7F8148004EB98
:100640000C107B696F6883684FEA0C1C1F4211D045
:100650000E223E4304EB0C016E6054F80C50002453
:100660004B68497B8A40196821F00F0119606A6064
:100670001C60D1E7C27B090153099B0002F160486D
:1006800003F1604302F01F0203F561430EFA02F228
:10069000C9B208F5614888F80013C3F880211A60D0
:1006A000D6E700BFBC120020001002401036000840
:1006B000032A30B52DD0042A08BF41610023164D0E
:1006C0000824AD5C9C461A469E4611F0800F4FEA06
:1006D00002124FEA03134FEA0C1C4FEA0E1E0CBF26
:1006E00042F00F022B4311F4004F0CBF4EF00F0EDF
:1006F0004CEA050C013C4FEA4101E6D1416801EAB0
:100700000E0141EA0C01416001680A401343036095
:1007100030BD0161D2E700BFFC35000800000000D9
:10072000F8B50C0756D4436804461A78002A39D124
:100730005E680E23456A6968D5F800C00A6822F031
:100740000F020A60697B026A03FA01F1D2E90075BF
:10075000CCF80410296821F00F012960527B9340E6
:100760007B60002E3BD004230370B0472378042B1A
:1007700035D0202383F31188A16879B100221C4B66
:100780008868A2604A6281F820201B689A688242C9
:10079000FBD25A68C1E9003211605960002383F32B
:1007A0001188F8BD4A0701F0020503D55B68002BEC
:1007B000F7D09847002DF4D063685B68002BF0D029
:1007C00004222046227098472378042BE9D1032382
:1007D0002370F8BD72B6064B064ADA62FEE70223C2
:1007E0002370202383F31188A1680029C6D1D5E79F
:1007F000281400201C350008000000000000000044
:100800000B0700D4704772B6014B024ADA62FEE76A
:10081000281400201C350008000000000000000023
:10082000024AD36843F0C003D360704700380140E8
:10083000FEE700BF00000000000000000000000014
:10084000202383F3118890F82030072B0DD8DFE8A0
:1008500003F0270C0C2308040C08426A9368013348
:100860009360D0E9003213605A6010B400224FF058
:10087000FF3481680C4B446280F820201B689A6822
:100880008A42FBD25A680021C0E9003210605860E9
:1008900081F3118810BC70470022436A1A60E4E7B4
:1008A000002383F311887047281400200000000003
:1008B000014B5B6883607047001000E0000000009F
:1008C0000E4B0F4A5B68526F81689B1A5B1A10B41B
:1008D000D0E90342D21841690261426841F1000146
:1008E0009342026804F1010488BF43609342C0E967
:1008F0000234416110BC38BF03607047001000E053
:10090000281400200000000000000000000000008B
:10091000036898423CD0F0B400260DE0D3E90142D0
:10092000676B94F820503A430A2D626316D00B2D62
:100930002AD01B68984225D0DA680A43DA60002979
:10094000ECD01A691142E9D11B6898421AD0DA68D2
:100950000A43DA601A691142E0D1F5E7656A2A4272
:10096000E7D0A5680B4A666284F820601268976831
:10097000AF42FBD21B6855689842C4E900252C6041
:100980005460D9D1F0BC7047656A9543D1D1E8E78E
:10099000704700BF28140020000000000000000085
:1009A000202310B483F311880B4B49425C68201A52
:1009B00008401968821A8A4207D3944205D35A60C4
:1009C000002383F3118810BC70470020002383F3B9
:1009D000118810BC704700BF3812002000000000D2
:1009E000064B49425A68101A08401968884203D3D6
:1009F000824201D3586070470020704738120020AF
:100A000070B5254C2378E569012B1AD123460A21BC
:100A1000224A0320FFF7F4FD06460A212346204A16
:100A200004202662FFF7ECFD1E4B7168DA6942F480
:100A30008042DA614268DB6905F10C0360628B6019
:100A400093606068D4E90A23018A22F470620E057B
:100A5000067823F4706344BF42F4A06243F4A063B9
:100A6000AEB142F0240243F02403C4E90A23438ACE
:100A70002A6843F0070322F0400241F441712A60E2
:100A800029606B602B6843F040032B6070BD22F03F
:100A9000240223F02403E8E7E80C002021070008E3
:100AA00001080008001002400000000000000000E3
:100AB0003A4B30B4DC693A4D44F00074DC61394C97
:100AC000DB69636A9446D3F800422C4044F0010489
:100AD000C3F80042D3F800222A4042EA002242F042
:100AE0000102C3F8002200293DD000210A46084631
:100AF000C3F81C12C3F80412C3F80C12C3F8141282
:100B000003EBC20101320E2AC1F84002C1F84402CF
:100B1000F6D101219CF80200BCF80020C50701FABB
:100B200002F104D5D3F804420C43C3F8044284070D
:100B300004D5D3F80C420C43C3F80C42400704D54B
:100B4000D3F814020843C3F8140203EBC202DCE931
:100B50000140C2F84042C2F84402D3F81C221143BB
:100B6000C3F81C120CE00122C3F84012C3F844126F
:100B7000C3F80412C3F81412C3F80C22C3F81C22E1
:100B8000D3F80012054A21F00101C3F80012D3691D
:100B900030BC23F00073D361D3697047001002406A
:100BA0000000FFFFFC120020000000000000000019
:100BB0002DE9F0410E46794D731C8046A96986B037
:100BC0004AD02F464FF0804E57F81C2F744BDEF85A
:100BD0002400BA42CDE9033180B200F0A7802B8D0A
:100BE0009468C31A9BB2F31828BF33469C4244D87A
:100BF00004D212681B1B94689C42FAD36C464FF0D7
:100C0000FF36029390680092C01A536801931C60EB
:100C1000C2E901406E620122286881F820800368E1
:100C20005D6080F820202B60A861FFF711FB039B1B
:100C30006BB1EB69009AA34246D0DDE901144FF095
:100C4000FF3093680A602344C2E901136862AB690C
:100C5000586A06B0BDE8F0810122286881F820803A
:100C600003685D6080F820202B60A861FFF7F0FA30
:100C7000AB69586A06B0BDE8F0814FF6FF74B44224
:100C800028BF3446022C38BF02240619B6B2CEF86B
:100C90003460DEF824601FFA86FCACEB000080B202
:100CA0008442ABD8022664460136B4441FFA8CF065
:100CB000CEF83400DEF824001FFA80FCACEB04040C
:100CC000A4B2B442EFD299E70023BA42EA61576076
:100CD00003935ED04FF08044936802990B44936075
:100CE000616A2A8D89B28A1A92B29342AFD99A1A4E
:100CF0004FF6FF739A4228BF1A46022A38BF0222D3
:100D00008B189BB26363636A9BB2591A89B2914292
:100D10009DD302211A460131581880B26063636A7C
:100D20009BB29A1A92B28A42F4D290E74FF6FF73BE
:100D30009E4202964FF0020228BF1E46964238BFDE
:100D400016464FF0000C6C4683199BB2CDE9007734
:100D5000C5E907442885CEF83430CEF810C0CEF867
:100D60000C20DEF824309BB2A3EB000C1FFA8CFCA5
:100D700066453FF650AF013286181846B6B2CEF837
:100D80003460DEF824309BB21E1AB6B29642F2D21C
:100D900041E74FF08042D36059E700BF281400209C
:100DA00041080008000000000000000000000000F2
:100DB0002DE9F04F85B04FF020091646D0F81C8081
:100DC000019389F31188002A32D0464604469246A0
:100DD0004FF0000B88460392A268A169524528BFD4
:100DE0005546276938BFA5687F1AAF424AD826D230
:100DF0003A464046FFF792FAEA1BE16808EB070023
:100E00000292FFF78BFA029AE1681144A268A1618D
:100E1000521BA2600EB12046B0478BF31188AAEB9B
:100E2000050AA84489F31188BAF1000FD4D1039EB2
:100E30003046002383F3118805B0BDE8F08F2A46C1
:100E40004046FFF76BFAE168A268A161521BA260FD
:100E5000002DDFD1019B63B10E4B60689A69019947
:100E6000C2E90040026004206260FFF7A1FE002892
:100E7000B2D0039E0023A6EB0A0083F3118805B0CD
:100E8000BDE8F08F2A464046FFF748FAA169294499
:100E9000DAE700BF28140020000000000000000076
:100EA0004FF0FF330C30FFF783BF00BF000000009E
:100EB0000C30FFF77DBF00BF000000000000000005
:100EC00070B52023044683F3118883688BB90D46DF
:100ED00029B3164EB36962682946C3E9004204206B
:100EE00013606360FFF764FE00281ADBA368002B21
:100EF000F0D0A368A169013BA36023694A1C9A4210
:100F000028BFE368A2610D7828BFA361E3690BB134
:100F100020469847002383F31188284670BD4FF080
:100F2000FF30002383F3118870BD00BF2814002018
:100F30004FF0FF310C30FFF7C3BF00BF00000000CF
:100F40000C30FFF7BDBF00BF000000000000000034
:100F5000F8B5202304460F4683F3118883688BB9C4
:100F6000154622B3154E6068B3692946C3E90040AF
:100F7000036004206360FFF71BFE002819DBA368F1
:100F8000002BF0D06269A368511C013B6161A36032
:100F90001770D4E904329A4224BFE3686361E369BD
:100FA0000BB120469847002080F31188F8BD4FF020
:100FB000FF30002383F31188F8BD00BF2814002000
:100FC0004FF0FF323030FFF7C3BF00BF000000001A
:100FD0003030FFF7BDBF00BF000000000000000080
:100FE0002DE9F04F85B04FF020091646D0F81C804F
:100FF000019389F311888AB34646044692464FF01E
:10100000000B88460392A268D4E9047052452CBFB5
:101010005546A5683F1AAF424AD826D23A464146BD
:10102000FFF77CF9EA1B08EB0701E0680292FFF783
:1010300075F9029AE1681144A2686161521BA260CD
:101040000EB12046B0478BF31188AAEB050AA844DD
:1010500089F31188BAF1000FD5D1039E30460023E1
:1010600083F3118805B0BDE8F08F41462A46FFF7AB
:1010700055F9E168A2686161521BA260002DDFD1C1
:10108000019B63B10E4B60689A690199C2E9004007
:10109000026004206260FFF78BFD0028B3D0039E3E
:1010A0000023A6EB0A0083F3118805B0BDE8F08F9A
:1010B00041462A46FFF732F961692944DAE700BF61
:1010C00028140020000000000000000000000000C4
:1010D0004FF0FF333030FFF783BF00BF0000000048
:1010E0003030FFF77DBF00BF0000000000000000AF
:1010F000F0B48368354CA169002B47D08D689A689D
:10110000954217D993F820209D60062A44D0072ADB
:101110002DD07AB9D3E900673E60776083F820204C
:101120002A4A12689668AE42FBD21A6055685D6022
:101130002B605360034603E08A689D68954202D3A2
:101140001B689842F8D106255A68C1E9003211603F
:10115000012259604862206881F8205003685C6071
:1011600080F820202360A061F0BCFFF771B85E6AB0
:101170001A685D682A605560324603E09D6897688A
:10118000AF42D2D312689642F8D1CEE78B6BF0BC57
:10119000C0E90213886370475E6A1A685D682A6056
:1011A0005560324603E09D689768AF4202D31268EB
:1011B0009642F8D155681A605D602B605360B36841
:1011C0008D689A68AA429DD3B4E700BF2814002016
:1011D00070B40026134A856891698C684662A542FE
:1011E00012D9134681F820601B689D68AC42FBD37E
:1011F0005C68C1E9003421600124596080F8204016
:1012000070BC9061FFF724B8134680F820601B681B
:101210009A689542FBD970BC5A68C0E900321060E8
:1012200058607047281400200000000000000000F3
:1012300038B52024034684F311881A4DC3F80811E9
:10124000C3F83C11C3F818510121022503F1DC0455
:10125000C3F80C410024C3F8DC20134AA3F8205142
:1012600083F82211114D516900F58070C3F81411F3
:10127000C3F8FC50C3E94D44C3F81C31C3F8102136
:10128000C3F8E04003F59475086103F59671C3E96E
:101290004A51C3F830115061FFF79AFF84F3118867
:1012A00038BD00BF2835000828140020610200085E
:1012B0002DE9F0412023804683F311880427294D2E
:1012C000294C05F108062B78052B04D06B6A9A6827
:1012D00012F0E05F1AD10122A169EB682068C1E930
:1012E0000063196081F820700368E9605C6080F831
:1012F00020202360A061FEF7ABFFA3695B6A002B8F
:10130000E1D0002383F31188BDE8F08198F8001044
:101310009868C1F300128C06C0F301604FEA4202E4
:101320001AD5D8F8044042EAC40242F0040203EBA2
:10133000001301F00F0142F00102D8E90240C3F8A6
:101340008411C3F888410021C3F88C01C3F88021BF
:1013500081F31188BDE8F081B8F8044042EA4452B4
:10136000E5E700BFFC120020281400200000000068
:10137000704700BF000000000000000000000000F7
:10138000704700BF000000000000000000000000E7
:10139000FEE700BF000000000000000000000000A9
:1013A00070B5134D05F1800455E90301884255F8E5
:1013B000102C0DD20346043A52F8046F43F8046B24
:1013C0008B42F9D34B1E1B1A23F00303043318443A
:1013D00055F8042C824207D9013A121A22F003026E
:1013E00000210432FEF74AFF1035A542DCD170BD62
:1013F000903600080000000000000000000000001F
:10140000184A516913680B4003F0010353613BB361
:1014100070B5154DAB680BB1E8689847202383F38E
:1014200011882C68AC4214D00026204624680F4B4B
:10143000816865602C60466280F820601B689A684D
:101440008A42FBD25A68AC42C0E900321060586050
:10145000EBD1002383F31188BDE87040FFF770B82B
:10146000FFF76EB800040140241300202814002068
:10147000184AF8B5516913680B4003F00203536131
:101480001BB3154FBB690BB1F8699847202383F351
:101490001188124D3C69AC4214D0002620462468C5
:1014A0000F4B81683C616560466280F820601B6874
:1014B0009A688A42FBD25A68AC42C0E90032106096
:1014C0005860EBD1002383F31188BDE8F840FFF7A3
:1014D00037B800BF0004014024130020341300205B
:1014E00028140020000000000000000000000000A0
:1014F000184AF8B5516913680B4003F004035361AF
:101500001BB3154FBB6A0BB1F86A9847202383F3CE
:101510001188124D3C6AAC4214D000262046246843
:101520000F4B81683C626560466280F820601B68F2
:101530009A688A42FBD25A68AC42C0E90032106015
:101540005860EBD1002383F31188BDE8F840FEF723
:10155000F7BF00BF00040140241300204413002003
:10156000281400200000000000000000000000001F
:10157000184AF8B5516913680B4003F0080353612A
:101580001BB3154FBB6B0BB1F86B9847202383F34C
:101590001188124D3C6BAC4214D0002620462468C2
:1015A0000F4B81683C636560466280F820601B6871
:1015B0009A688A42FBD25A68AC42C0E90032106095
:1015C0005860EBD1002383F31188BDE8F840FEF7A3
:1015D000B7BF00BF000401402413002054130020B3
:1015E000281400200000000000000000000000009F
:1015F000184AF8B5516913680B4003F010035361A2
:101600001BB3154FBB6C0BB1F86C9847202383F3C9
:101610001188124D3C6CAC4214D000262046246840
:101620000F4B81683C646560466280F820601B68EF
:101630009A688A42FBD25A68AC42C0E90032106014
:101640005860EBD1002383F31188BDE8F840FEF722
:1016500077BF00BF00040140241300206413002062
:10166000281400200000000000000000000000001E
:10167000F8B56C4B5A691D68154005F47872AC06D4
:101680005A6125D5684CA36D0BB1E06D98472023B6
:1016900083F31188654F266DBE4216D04FF0000CC3
:1016A00030463668624B816826657760C0F824C092
:1016B00080F820C01B689A688A42FBD25A68BE42F2
:1016C000C0E9003210605860EAD1002383F311882A
:1016D000680625D5544CA36E0BB1E06E98472023C5
:1016E00083F31188534F266EBE4216D04FF0000C84
:1016F000304636684E4B816826667760C0F824C055
:1017000080F820C01B689A688A42FBD25A68BE42A1
:10171000C0E9003210605860EAD1002383F31188D9
:10172000290625D5404CA36F0BB1E06F98472023C5
:1017300083F31188404F266FBE4216D04FF0000C45
:10174000304636683A4B816826677760C0F824C017
:1017500080F820C01B689A688A42FBD25A68BE4251
:10176000C0E9003210605860EAD1002383F3118889
:10177000EA0529D52C4CD4F8883013B1D4F88C0064
:101780009847202383F311882C4FD4F88060BE4201
:1017900017D04FF0000C30463668254B8168C4F8EE
:1017A00080607760C0F824C080F820C01B689A6809
:1017B0008A42FBD25A68BE42C0E9003210605860CB
:1017C000E9D1002383F31188AB0527D5164CD4F853
:1017D000983013B1D4F89C009847202383F31188E4
:1017E000174ED4F89050B54215D0002728462D68E2
:1017F0000F4B8168C4F890506E60476280F820708B
:101800001B689A688A42FBD25A68B542C0E9003226
:1018100010605860EAD1002383F31188BDE8F840D6
:10182000FEF78EBE00040140241300207413002034
:10183000281400208413002094130020A4130020F7
:10184000B4130020000000000000000000000000B1
:10185000F8B5884B5A691D68154005F47C426E0541
:101860005A6129D5844CD4F8A83013B1D4F8AC000F
:101870009847202383F31188804FD4F8A060BE429C
:1018800017D04FF0000C304636687D4B8168C4F8A5
:10189000A0607760C0F824C080F820C01B689A68F8
:1018A0008A42FBD25A68BE42C0E9003210605860DA
:1018B000E9D1002383F311882C0529D56E4CD4F887
:1018C000B83013B1D4F8BC009847202383F31188B3
:1018D0006C4FD4F8B060BE4217D04FF0000C3046C9
:1018E0003668674B8168C4F8B0607760C0F824C080
:1018F00080F820C01B689A688A42FBD25A68BE42B0
:10190000C0E9003210605860E9D1002383F31188E8
:10191000E80429D5584CD4F8C83013B1D4F8CC0019
:101920009847202383F31188574FD4F8C060BE42F4
:1019300017D04FF0000C30463668514B8168C4F820
:10194000C0607760C0F824C080F820C01B689A6827
:101950008A42FBD25A68BE42C0E900321060586029
:10196000E9D1002383F31188A90429D5424CD4F886
:10197000D83013B1D4F8DC009847202383F31188C2
:10198000424FD4F8D060BE4217D04FF0000C304622
:1019900036683B4B8168C4F8D0607760C0F824C0DB
:1019A00080F820C01B689A688A42FBD25A68BE42FF
:1019B000C0E9003210605860E9D1002383F3118838
:1019C0006A0429D52C4CD4F8E83013B1D4F8EC00D3
:1019D0009847202383F311882D4FD4F8E060BE424E
:1019E00017D04FF0000C30463668254B8168C4F89C
:1019F000E0607760C0F824C080F820C01B689A6857
:101A00008A42FBD25A68BE42C0E900321060586078
:101A1000E9D1002383F311882B0427D5164CD4F881
:101A2000F83013B1D4F8FC009847202383F31188D1
:101A3000184ED4F8F050B54215D0002728462D682E
:101A40000F4B8168C4F8F0506E60476280F82070D8
:101A50001B689A688A42FBD25A68B542C0E90032D4
:101A600010605860EAD1002383F31188BDE8F84084
:101A7000FEF766BD0004014024130020C4130020BB
:101A800028140020D4130020E4130020F4130020B5
:101A900004140020141400200000000000000000C6
:101AA000DFF890C0F8B5DCF82420936813F001014A
:101AB000936004D013F00C0F18BF4FF48031D80599
:101AC00006D513F4406F14BF41F4003141F0020118
:101AD000DA0306D513F4402F14BF41F4802141F0FE
:101AE0000401202383F31188134EDCF80850B5421B
:101AF00015D000272C462D68104BA068CCF8085054
:101B00006E60676284F820701B689A688242FBD21C
:101B10005A68B542C4E9003214605C60EAD10848F2
:101B2000FEF7F6FE002383F31188BDE8F840FEF7C8
:101B300007BD00BFFC120020041300202814002061
:101B4000181300200000000000000000000000004A
:101B50002DE9F041244F7B6AD3F80C8018F0030F75
:101B600006D118F0100F2ED1BDE8F041FEF7E8BC09
:101B70005A69202122F002025A6181F311883D4600
:101B800055F8104FAC4214D0002620462468174B5D
:101B900081683C616560466280F820601B689A68D5
:101BA0008A42FBD25A68AC42C0E9003210605860E9
:101BB000EBD101210E48FEF7ABFE002383F3118821
:101BC00018F0100FD0D010217A6A2023D16083F34F
:101BD00011880848FEF79CFE002383F31188BDE8B6
:101BE000F041FEF7ADBC00BFFC120020281400201D
:101BF000141300201C13002000000000000000004F
:101C00002DE9F041244F7B6AD3F8108018F0030FC0
:101C100006D118F0100F2ED1BDE8F041FEF790BCB0
:101C20005A69202122F010025A6181F311883D4641
:101C300055F8104FAC4214D0002620462468174BAC
:101C400081683C616560466280F820601B689A6824
:101C50008A42FBD25A68AC42C0E900321060586038
:101C6000EBD102210E48FEF753FE002383F31188C7
:101C700018F0100FD0D010217A6A2023116183F35D
:101C800011880848FEF744FE002383F31188BDE85D
:101C9000F041FEF755BC00BFFC12002028140020C4
:101CA000141300201C13002000000000000000009E
:101CB000184808B5436A5A685A6052070AD4202364
:101CC00083F31188144B5B6813F400630ED183F324
:101CD000118808BD9969202383F3118818440904E9
:101CE000FEF716FE002383F31188E8E7EFF309837C
:101CF0004FF08072203BDA6183F30988074A11684C
:101D000092698968926891428CBF054A054A9A6136
:101D100008BD00BFFC12002000ED00E028140020E8
:101D200073020008760200080000000000000000B6
:101D300008B5154B19689A6801F00E01114205D0DB
:101D4000124A596093680BB1D0689847202383F3F7
:101D500011880F4B5B6813F4006302D183F3118881
:101D600008BDEFF309834FF08072203BDA6183F303
:101D70000988084A116892698968926891428CBF03
:101D8000054A064A9A6108BD00000240BC120020C4
:101D900000ED00E02814002073020008760200081D
:101DA000164B10B51968DA69090901F00E011142E4
:101DB00006D013480A0104695A600CB14069A04773
:101DC000202383F311880F4B5B6813F4006302D167
:101DD00083F3118810BDEFF309834FF08072203B2D
:101DE000DA6183F30988084A116892698968926800
:101DF00091428CBF054A064A9A6110BD000002401C
:101E0000BC12002000ED00E028140020730200083E
:101E10007602000800000000000000000000000042
:101E2000164B10B519681A6B090A01F00E01114220
:101E300006D013480A0284695A600CB1C069A047F1
:101E4000202383F311880F4B5B6813F4006302D1E6
:101E500083F3118810BDEFF309834FF08072203BAC
:101E6000DA6183F30988084A11689269896892687F
:101E700091428CBF054A064A9A6110BD000002409B
:101E8000BC12002000ED00E02814002073020008BE
:101E900076020008000000000000000000000000C2
:101EA000164B10B519685A6C090B01F00E0111425E
:101EB00006D013480A03046A5A600CB1406AA0476E
:101EC000202383F311880F4B5B6813F4006302D166
:101ED00083F3118810BDEFF309834FF08072203B2C
:101EE000DA6183F30988084A1168926989689268FF
:101EF00091428CBF054A064A9A6110BD000002401B
:101F0000BC12002000ED00E028140020730200083D
:101F10007602000800000000000000000000000041
:101F2000164B10B519689A6D090C01F00E0111429B
:101F300006D013480A04846A5A600CB1C06AA047EC
:101F4000202383F311880F4B5B6813F4006302D1E5
:101F500083F3118810BDEFF309834FF08072203BAB
:101F6000DA6183F30988084A11689269896892687E
:101F700091428CBF054A064A9A6110BD000002409A
:101F8000BC12002000ED00E02814002073020008BD
:101F900076020008000000000000000000000000C1
:101FA000164B10B51968DA6E090D01F00E011142D9
:101FB00006D013480A05046B5A600CB1406BA04769
:101FC000202383F311880F4B5B6813F4006302D165
:101FD00083F3118810BDEFF309834FF08072203B2B
:101FE000DA6183F30988084A1168926989689268FE
:101FF00091428CBF054A064A9A6110BD000002401A
:10200000BC12002000ED00E028140020730200083C
:102010007602000800000000000000000000000040
:10202000174B10B51968D3F88020090E01F00E0186
:10203000114206D013480A06846B5A600CB1C06B7B
:10204000A047202383F311880F4B5B6813F40063D0
:1020500002D183F3118810BDEFF309834FF0807232
:10206000203BDA6183F30988084A1168926989681C
:10207000926891428CBF064A064A9A6110BD00BF21
:1020800000000240BC12002000ED00E028140020F7
:102090007302000876020008000000000000000043
:1020A0002DE9F0414FF080473B69FA681340DAB2FE
:1020B000D2439B073A6103D4BDE8F041FEF740BA32
:1020C000202585F311882F4C786AE369B4F828C07D
:1020D00080B29A68A0EB0C0189B291424ED34FF0C6
:1020E000000804F11C066244D3E900102285016057
:1020F000D4F81CC0DA68B4454860C3F80C8008BF47
:10210000C7F80C8088F311881869904785F3118807
:10211000786AE369B4F828C080B29A68A0EB0C0131
:1021200089B29142DFD2B34221D0521A4FF6FF71E9
:102130008A4220859A6028BF0A46022A38BF0222B6
:102140004FF0804483189BB26363636A9BB2181A92
:1021500080B282420BD802211A4601310B449BB255
:102160006363636A9BB29A1A92B28A42F4D20023E2
:1021700083F31188BDE8F041FEF7E2B904F11C06D3
:10218000D1E700BF2814002000000000000000007C
:102190002DE9F04F8B4C83B0D4F874A0DAF80C9092
:1021A000DAF80030D9059DB200F19D80202383F339
:1021B000118815F02F0F5ED0834F4FF0000807F104
:1021C00008060BE0A906DAF8043094F878B020D4B9
:1021D000DAF8003013F02F0F9DB24CD02A07F1D05F
:1021E00045F30001C5F3C00301F0200141EAC3112A
:1021F000AB0748BF41F04001680748BF41F4807118
:102200003846FEF785FBA906DAF8043094F878B072
:10221000DED56269002A48D0D4E908218A424ED02E
:1022200061690BEA030B0131531C2362616182F87F
:1022300000B0D4E907329A4228BFA369E16828BFF9
:102240002362B142C4D00B688868E3605E605F4B74
:10225000C1F8248081F820801B689A688242FBD2F2
:102260005A680B604A6011605960DAF8003013F068
:102270002F0F9DB2B2D1002383F3118819F0800F84
:1022800001D02A0654D419F0400F01D06B061FD498
:10229000202383F311884E4B5B6813F4006332D123
:1022A00083F3118803B0BDE8F08F04214648019301
:1022B000FEF72EFBD4E908218A42019BB0D1616967
:1022C0000029ADD04FF480613F48FEF721FB7FE746
:1022D000202383F31188D4E911239A4256D0002396
:1022E00083F31188D4E7202383F311884FF400711E
:1022F000201DFEF70DFB6FF480720023CAF800204A
:1023000083F3118852E7EFF309834FF08072203B8B
:10231000DA6183F309882D4A1168926989689268A5
:1023200091428CBF2B4A2C4A9A6103B0BDE8F08FD2
:10233000202383F31188D4E911239A4234D0A26B6D
:102340000132A2635A1CA2641E78236C9A4201D304
:10235000E36BA364216B214B994211D000220868E2
:10236000206343608868194B4A6281F820201B680B
:102370009A688242FBD25A680B604A6011605960C9
:10238000CAF80460002383F311887CE7A36B002B59
:10239000A5D010210C48FEF7BBFA4FF6BF7309EA2F
:1023A0000303CAF80C309AE7A26B002AC7D00821B1
:1023B0000548FEF7ADFA4FF67F7309EA0303CAF842
:1023C0000C30DFE7401200204412002028140020C7
:1023D00000ED00E073020008760200087012002091
:1023E000174A136843F00103136013689907FCD57B
:1023F00000201368124903F0F903136050604B6822
:1024000013F00C0FFBD14B680D4A43F420134B60C3
:102410000B6843F080730B6013689B01FCD511209F
:102420000849094B516018605368054943F002039D
:1024300053604B6803F00C03082BFAD1704700BFC0
:10244000001002400064680000200240000000000C
:1024500010B44FF0010C00240D4A10689169036814
:102460005A6080F820C081F8204013608C68906129
:102470009A68A24203D91B689A68A242FBD85A689C
:1024800010BCC1E9003211605960FDF7E1BE00BF28
:1024900028140020000000000000000000000000E0
:1024A00038B5214D2023AC6983F311880268C368D5
:1024B0008242A36332D0E16B4BB11A68934203D0DE
:1024C0009268914238BF1146DB68002BF5D1A160BC
:1024D00001688A6B0B688C6803605860C0E902125F
:1024E0000022114B886381F820201B689A68A24261
:1024F000FBD25A68A869C1E9003211602A685960A4
:10250000926883689A4203D8002383F3118838BD08
:10251000FFF79EFF002383F3118838BD00239360EB
:10252000002383F3118838BD281400200000000028
:10253000634C2DE98848634AA369634E4FF0200934
:10254000042701254FF0000ADFF880819A61A6F187
:10255000100B61E0DBF82430DA68920702D11A69C7
:1025600090075FD0DA68910774D11A69920737D063
:10257000D3F8C011D3F8C421D3F8C801C8F81000AB
:10258000D3F8CC01C8F81400C3F81090186980077C
:1025900003D1586940F01000586198F80400C1F365
:1025A0004003C1F3800C1B0120F0300043EA4C13C0
:1025B0000343980688F8043062D5D8F80830C90873
:1025C00061F31C03C8F8083098F80430110A62F36C
:1025D0000303120C88F8043088F80010A8F80220D1
:1025E0008AF3118889F311883948FEF781FD8AF34F
:1025F000118898F804301B0703D098F810100029B0
:1026000046D13348FFF74CFF89F31188C8210820D1
:10261000FEF7CEFA8AF3118889F311889BF800300F
:10262000052B97D1A169DBF814302068C1E900635C
:10263000196081F820700368CBF814105C6080F892
:1026400020502360A061FDF703FEA3695B6A002BA5
:10265000E4D0DFE7D3F8B011D3F8B421D3F8B80150
:10266000C8F81000D3F8BC01C8F81400C3F80C90E7
:10267000D868800791D1586940F0020058618CE712
:10268000B8F80830490D61F30A03A8F808309BE751
:10269000104B01F00F011878002341FA03F205FAFC
:1026A00003FC12F0010F03F1010340EA0C0214BF16
:1026B000D0B220EA0C00042BEFD1064B1870A0E733
:1026C00028140020303500080C130020A009002039
:1026D00030080020980900200000000000000000E1
:1026E000464E2DE988483378DFF8148123F03F0304
:1026F00043F00503337098F80030424F23F03F0356
:1027000043F0080388F800303B783F4923F03F034B
:1027100043F008033B700B783C4A23F03F0343F03F
:1027200004030B70B38892696FF30A03B380B8F89F
:102730000430DFF8DCB06FF30A03A8F80430BB887C
:10274000DFF8D0A06FF30A03BB808B88DFF8C89056
:102750006FF30A038B80314B9361202585F3118839
:102760002F48FEF7C5FC002484F31188BBF8003025
:102770002B483381BAF800307381FFF791FE85F35F
:1027800011882848FEF7B4FC84F31188264B2548AD
:102790001B783373FFF784FE85F311882348FEF717
:1027A000A7FC84F31188D9F80430174AC8F80C3014
:1027B000D9F800301D48C8F80830D9F80C30FB6053
:1027C000D9F80830BB60D9F810309360FFF768FE85
:1027D0000A48FEF76DFD0A48FEF76AFD0948FEF754
:1027E00067FD0948FEF764FD85F31188C8210820BC
:1027F000FEF7DEF984F31188AFE700BF88090020F7
:1028000078090020680900205809002028140020B9
:10281000500900204E0900203809002040350008EA
:1028200020080020100800204C090020000800208B
:10283000254B264A9B6980B5254D264F264C274EB1
:102840009A61202383F311882846FEF751FC002368
:1028500083F31188DAB2022A39780CD0032A16D011
:10286000012A0ED00122C8074CBF326172610133C8
:10287000DAB2022AF2D148071ED54FF48042226113
:10288000F5E788074FF40052F9D46261EFE74FF49F
:1028900000430A074CBF236163612846FFF700FE2F
:1028A000202383F311884FF4FA710820FEF780F992
:1028B000002383F31188C4E74FF480400133DAB278
:1028C000022A6061CAD1F9E72814002050350008B7
:1028D0003008002098090020001001400014014039
:1028E00080B520273B4B3C4A9B693C4E3C4D3D4CC0
:1028F000DFF8F4809A6187F311882846FEF7F8FB29
:10290000002282F311883078D3B2013B062B56D8CF
:10291000DFE803F04B41372D231A0400A368DB05E1
:102920004CBF40F0800300F07F0328463370FFF770
:10293000B7FD87F311884FF4FA710820FEF738F9D4
:10294000002383F31188D6E7A368013219044CBF32
:1029500040F0400000F0BF00D6E7D8F80830013260
:102960001B044CBF40F0200000F0DF00CCE7D8F89B
:102970000830013219064CBF40F0100000F0EF00A3
:10298000C2E7D8F8083001325B064CBF40F00800BF
:1029900000F0F700B8E7D8F80830013299064CBFCC
:1029A00040F0040000F0FB00AEE7D8F80830013238
:1029B000DB064CBF40F0020000F0FD00A4E70A4B2C
:1029C00001329B6819074CBF40F0010000F0FE0087
:1029D0009AE700BF281400205C3500084C0900204D
:1029E0001008002000080140000C01400000000019
:1029F000334D2DE98848334AAB69334CDFF8CC803E
:102A00009A61202787F311883148FEF771FB002671
:102A100086F3118887F31188012203204FF00A0AF8
:102A20004FF4100E4FF480714FF4F37C294BD4F81F
:102A300030902361E36AC4F80880D3F804B02070B2
:102A4000A36AE260CBF80C80CBF804A0CBF800902E
:102A5000DBF80090DFF880A049EA0209CBF800908B
:102A6000DFF878905960A969C3F80890DE60C3F870
:102A700010A0C3F82CE0C3F830C0DFF864C0C3F87E
:102A800034C0C3F8089081F82000164B28684B62C8
:102A9000036861615D6080F820202B60A861FDF70C
:102AA000D7FB86F311880A48FFF7FAFC87F31188F1
:102AB0004FF4FA710820FEF77BF886F31188A0E73F
:102AC000281400206C350008680B0020380900200D
:102AD000000800208C350008DBB66D1B03014000A8
:102AE0002088410A7C0B002000000000000000004C
:102AF0002DE9F04F2026044683B086F311884E4F0F
:102B000000253846FEF7F4FA85F311884B4B4C4A02
:102B1000DC609A6086F3118847F8083CFDF770FF87
:102B20004FF0020EA7F10C0407F80CEC85F31188A6
:102B300086F311884FF001086268D368926808FA3A
:102B400003F3536185F31188ADF8045086F31188BF
:102B50004FF0030C2046626A236AA16A52685B68E0
:102B6000D4F82C90DFF8DCA041F080010DF1040BCB
:102B7000C3F80CB007F80CCCC3F804E01960C2F835
:102B80000CA0C2F804E0C2F80090196841EA0801FC
:102B9000196011682C4B41EA08011160996940F8ED
:102BA000081F4862186881F820C00268536080F8E6
:102BB00020801A609861FDF74BFB85F3118886F33E
:102BC00011886268D368926808FA03F3136185F389
:102BD000118886F3118817F80C3C022B14D00023BF
:102BE00001226360227083F311881348FFF758FCB9
:102BF000BDF804305BBA98B25B074CBF4FF6FF706C
:102C0000C00803B0BDE8F08FD4E907301A6822F09D
:102C100040021A601D605D60FDF7BAFC606AFDF756
:102C2000B7FC00200021094BDA6922F48042DA6106
:102C3000DB69C4E90801D2E7F40C00204008002059
:102C4000000C01408A3500082814002000100240C2
:102C500020260025134B144A9B6980B5DFF84C8071
:102C6000134F144C9A6186F311882046FEF740FA00
:102C700085F311880B20FFF73BFF03460C20A8F8D3
:102C80000030FFF735FF034620463B80FFF708FC86
:102C900086F311884FF4FA710820FDF789FF85F358
:102CA0001188E0E72814002078350008500900203A
:102CB0004E09002020080020000000000000000055
:102CC000202370B583F311881A4EB1698D6A01F122
:102CD000280C6545486213D04FF0000E2C462D6835
:102CE000144BA0688D6284F820E01B689A688242C9
:102CF000FBD25A686545C4E9003214605C60EDD1CE
:102D000091F822303BB991F821309B0703D1D1E9EA
:102D1000043213615A610F230122306881F8203098
:102D200003685E6080F820203360B061BDE87040C9
:102D3000FDF78EBA281400200000000000000000FB
:102D4000EFF30983203383F30988002383F3118889
:102D5000704700BF000000000000000000000000FD
:102D600000214FF0FF332DE98048C54AC54D106959
:102D700087B069601361166911611669D668D360FE
:102D8000D368D160D368D669BF4F46F08056D6610C
:102D9000D669D6690B4646F00066D661D2693A68B4
:102DA000BA4C42F480723A600A4605F10800296084
:102DB00054F823100A6040F8132004331C2BF7D179
:102DC0004FF0FF32B24B60205A604FF480744FF4E2
:102DD00000034FF0400C80274FF400764FF48065DD
:102DE0000022AC4981F80603C1F880C1C1F800C0D7
:102DF00081F80703C1F880710F6081F80803C1F8FA
:102E000080410C6081F80903C1F880610E6081F88F
:102E10000A03C1F880510D6081F81703C1F88031B1
:102E20000B609D4B81F82803C1F884414C6019194F
:102E3000C3E90033C3E9022210339942F8D1904824
:102E40004FF0883384694FF0FF3144F07D04846192
:102E5000856942F28A5501274FF0090CDFF83C9250
:102E60008F4C904EDFF840E2C9E90B25C9E90322F7
:102E7000C9E90122C9F81420C9F820208B4DE1606E
:102E800063602360C4F80C14C4F80434C4F800343C
:102E9000F160C6F804E03360854E04F58064E960B3
:102EA0006B602E60C4F80C1CC4F8043CC4F8003CF1
:102EB00089F8007083697F4943F40073836109F1E5
:102EC0001803C9E90633C9F8281083694A608F607E
:102ED000C1F808C08B681C07FCD40523754A8B60B9
:102EE000936813F00403FBD11C46654E9460B269ED
:102EF0004FF4002C22F40072B261B2690123B022B7
:102F00004FF480154FF400104FF48001DFF884A1D6
:102F1000694FDFF8A8B13B707C608AF81323CAF8C8
:102F200080C1CAF800C08AF81423CAF88051CAF8D0
:102F300000508AF81523CAF88001CAF800008AF800
:102F400016235F4ACAF88011CAF800107A6207F1A6
:102F50000802C7E9022207F11002C7E9042207F1BB
:102F60001802BA6107F11C02FA6107F1200221463A
:102F70000E203A622246FDF79BFD524D41F20A0EA9
:102F80002846CBF828E0DFF840E1012340F804EBC5
:102F900068604E484FF01008E8644D486C616867FF
:102FA000A0F58030CBF81C0005F16400C5E91100E4
:102FB000E861E86305F15400C5E90800A86105F17E
:102FC0000C00C5E9030005F13000C5E90C000BF168
:102FD0000C00CBE9030005F17400286441F21800ED
:102FE000C5F838802B728BF80030CBE90144CBE96F
:102FF0000844ED622D65AC62CBF81440CBF82C0090
:10300000F069DFF8D0E01843F061F0694FF0FF306D
:10301000314E4FF08042C6E901647062DEF8040070
:10302000348540F40060CEF8040045F6BF5EC2F877
:1030300028E04FF6FF7E4FF0805CC2F82CE09461F0
:103040005463D4605460536113606FF07F0323486E
:103050008AF81C33CAF880C1CAF800C0DFF880C003
:10306000204AC0F800C0DFF880C0C2E90144C0F8BF
:1030700004C01E485461106006F11C0038E000BF17
:1030800000100240BC1200200070004014360008FE
:103090000000024000E100E024130020680B002043
:1030A0000008014000100140888838880014014061
:1030B0004488888800240140FC120020E80C00208D
:1030C0000064004040120020B435000821080008C8
:1030D00000380140002004E02814002038120020AD
:1030E000A0140020B809002000500020A109000809
:1030F000C6E9070002F10C00C2E903001422C24B2A
:1031000036601B605B609A611C2204211A63BF4A0F
:103110009C601A629A6303F110021A6103F124029F
:103120005A6203F128029A6203F13C02DA6303F166
:1031300040021A6403F144025A645C610022D961BE
:103140005963DC6200234FF0FF308846CDE9042349
:1031500000907467019403946846FDF7A9FBFDF79E
:10316000AFFBB8F10108F7D180200121009AA84BEC
:103170007267A84AC6E90433B361B26403F12C0252
:103180002833C6E916323266C6E919882022C6E914
:103190001066C6F84C80B063F06686F85210A6F848
:1031A000501082F3118862B64FF6FF0E10249A4B2E
:1031B0009A48D3F80CC00CEA0E0C4CEA0000D86018
:1031C000D3F8FC00DFF858C240F08070C3F8FC0070
:1031D000DCF800000843CCF80000DC7783F82220FC
:1031E00088F3118862B682F3118802228D4BC3F8EE
:1031F0009810C3F8CC1083F8B2108B49A3F8B02014
:10320000D9668A497269C3F88C10894903F1900024
:10321000C3F8A81003F16C01C3F8A420C3E93188F6
:10322000C3F8AC30C3F87080C3F8A060C3F89C103A
:10323000106103F1BC02C3E92F2203F1B8027061EF
:10324000C3F8B820FDF7C4FF88F311887948042239
:103250004FF40071FDF72CFA04224FF48071FDF752
:1032600027FA83689A0540F133818368DB0540F1D2
:103270002F81202383F311882A7A012A0CD1C024BC
:103280006D496E4A886940F480408861896982F896
:103290002543C2F88431536040F271226B6F0024E1
:1032A0009A6040221A6101225A6142F22C12FF21D7
:1032B000DA6002221C6018685B6885F878102A7250
:1032C00084F31188202383F3118899F80030C9F81A
:1032D0000440012B14D10621594B5A4A2046FDF7D0
:1032E0008FF9594D4268544BD9F82810C9F82C0071
:1032F00095609A6942F400729A619B694C608C6097
:1033000002254FF0000889F8005088F311889E21AB
:103310004E4A4F48FDF78CFF202686F311884D4B0F
:10332000CBF80430FDF76CFB8BF8005088F3118864
:1033300001248021484A4948FDF77AFF3D4803228D
:103340000821FDF7B5F903221021FDF7B1F9314647
:103350000322FDF7ADF903224021FDF7A9F903226D
:103360008021FDF7A5F903224FF40041FDF7A0F9F4
:10337000A0F5806003224FF40041FDF799F9032284
:103380004FF48071FDF794F98221354A3548FDF7F5
:103390004FFF354806220121FDF78AF944610622D4
:1033A000A0F580604FF40051FDF782F94FF400530F
:1033B000062243614FF48041FDF77AF94FF48043D0
:1033C000062243614FF40041FDF772F94FF40043C8
:1033D00080214361254A2648FDF72AFF40462146C1
:1033E000244AFDF765FB86F31188134A3D70D169C5
:1033F00021487B6A41F000717860D161D2691C601C
:103400005A68D10742D439E0D4090020E109000804
:1034100058140020DC35000800ED00E00003FA0538
:10342000001000E060080020310800086102000878
:1034300084350008000C01400010024000E100E06B
:10344000680B0020210400084C240140F1290008E9
:10345000200A002040080020512C0008A00B00206A
:10346000E1280008180D0020001401403128000850
:10347000600E002054080020F435000801210820C7
:10348000FDF796FB7B6A5A68D207F7D504217A6864
:10349000D2E90004154ADC6118605A6139700023D2
:1034A00083F31188A021124A1248FDF7C1FEA02122
:1034B000114A1248FDF7BCFE202484F311884FF412
:1034C000FA610820FDF774FB002383F31188F4E709
:1034D0000B4B9A68960503D49B68DC053FF5C9AE93
:1034E000074B9A68900548BF9B68C2E65B8701005E
:1034F00031250008F0100020E1260008A80F002068
:10350000000C01400000000000000000000000006E
:0C3510000022014B5A6070475408002054
:10351C00444D41206661696C757265006E6F6E6119
:10352C006D65000063616E5F52585F54687265612F
:10353C006400000063616E5F54585F54687265618B
:10354C00640000004F75745F54687265616400001C
:10355C004469676974616C5F5468726561640000EA
:10356C004164635F54687265616400005370695F05
:10357C00546872656164000069646C650000FFFF4B
:10358C0000000A0000000000000000000000000025
:10359C000000400000000000DBB66D1B0000900036
:1035AC00E60100002088410A00000000D11000084C
:1035BC00A10E0008C10F0008310F0008D10F000840
:1035CC00410F0008E1100008B10E000811040008BA
:1035DC006D61696E00164430040244080C10141816
:1035EC001C202122000000006400000008001C00C8
:1035FC00040204080800030708080808080808085B
:10360C000B0F000000000240080002400100000007
:10361C000000000B000002401C00024002000000F1
:10362C000004010C000002403000024004000000C5
:10363C000008020D00000240440002400800000097
:10364C00000C030E00000240580002401000000065
:10365C000010040F000002406C000240200000002B
:10366C0000140510000002408000024040000000E1
:10367C000018061168370008A0140020A0140020C0
:10368C00A0140020683700080000000000000000B3
:10369C000000000068370008000000000000000077
:1036AC000000000068370008000000000000000067
:1036BC000000000068370008000000000000000057
:1036CC000000000068370008000000000000000047
:1036DC000000000068370008000000000000000037
:1036EC000000000068370008000000000000000027
:0436FC0000000000CA
:083700001CCCFF7F010000005A
:103708000008002000080020000000000000000061
:103718001008002010080020000000000000000031
:103728002008002020080020000000000000000001
:1037380030080020300800200000000000000000D1
:103748000000000000000000000C01400B00000019
:103758001900000000000200000000000400E0FF63
:0400000508000249A4
:00000001FF
